:020000040800F2
:10000000780C0020E1000008E90800085908000801
:1000100000000000000000000000000000000000E0
:10002000000000000000000000000000ED080008D3
:100030000000000000000000EB080008BD090008F7
:10004000F3000008F3000008F3000008F3000008C4
:10005000F30000080D0800082D0800083508000806
:1000600000000000E5070008F3000008F3000008A6
:10007000F3000008F3000008F3000008000000008F
:10008000F3000008F300000800000000F30000087F
:10009000F3000008F3000008F3000008F300000874
:1000A000F3000008F3000008F3000008F300000864
:1000B000F300000800000000000000000000000045
:1000C000F300000800000000F30000080348854624
:1000D00000F002FB0048004749350008780C00207A
:1000E0000448804704480047FEE7FEE7FEE7FEE7D6
:1000F000FEE7FEE7C5090008CD00000803460B43F4
:100100009B0703D009E008C9121F08C0042AFAD2CD
:1001100003E00B780370401C491C521EF9D2704753
:10012000F0B51FB488B00B9909980024484009998C
:10013000C00F490049080991C0070B990090490078
:1001400049080B9109990898A64608431CD00B99B9
:100150000A98084318D0099801244000420D48002D
:10016000410D099824050003000B204309900B98CA
:100170000003000B20430B9050181C49401800222C
:1001800001901446104605E0002001460DB0F0BD78
:10019000032801DA034600E003239C46C11A0AAE95
:1001A0000AE05F0008ADED5B4F00F75B7D43002781
:1001B000AA187C41491C5B1E6145F2DD410004AB7D
:1001C0005A522104120C0A43240C401C0828DFDB7D
:1001D000019802900099704601910090059B049A45
:1001E0000799069800F040F9D0E700000DFCFFFFEA
:1001F000F0B50C465C4085B0E40FE40703944C0076
:100200000026640859009446490802460296224393
:1002100021D062460A431ED06200570D4A000E03E9
:100220002303550D012402462C492405781B1B0B82
:10023000360B401823432643614600901C46501A53
:10024000B44103D30098401C009002E0921800983B
:100250005B41002803DA0020014605B0F0BD002014
:10026000012109050746864611E064461D46141B18
:10027000B54106D36546521BB341744607430C4350
:10028000A646CD0740084908284392185B41054619
:100290000D43EAD11046184313D06046194650402A
:1002A0007140084306D06046101AB34106D20122BD
:1002B000002306E000220123DB0702E00122D243F3
:1002C0005310009874460105381C6141029C039D3F
:1002D0000019694100F0BBF8BFE70000FD03000012
:1002E0000EB5C217C10F5040CA0740180021054B78
:1002F0000293019200910A460B4600F0B5F803B054
:1003000000BD000033040000CB0FDB07490010B52F
:10031000490802460A4307D00A0D07240903E401ED
:10032000090B121B002A01DC002010BDC900440F7C
:100330000C43C100E018D205801800F047F810BD4A
:1003400030B50B46014600202022012409E00D466D
:10035000D5409D4205D31D469540491B25469540F5
:1003600040191546521E002DF1DC30BDF0B51FB40A
:100370000646002082B005464024019100901BE013
:10038000019922460F46304600F0C8F9049A059BB1
:10039000801A994110D310461946224600F0AEF952
:1003A000361A8F410197224601200021009F00F05C
:1003B000A5F938184D4100902046641E0028DFDC66
:1003C000019B00982946324607B0F0BD002904DAA7
:1003D000401C490001D140084000704770B400241F
:1003E000050C05D11024000402D1002921D01124CC
:1003F000050E01D100020834050F01D10001241DB2
:10040000850F01D18000A41C002801DB4000641C82
:10041000002908D020252E1B0D46F540A14000D014
:1004200001212943084301061B1B000ADB1D02D5DD
:10043000002070BC7047DB05181880180029F8DA16
:10044000401C4900F5D170BC40084000704710B511
:10045000002B08DA0024401C614192185B411A43CA
:1004600001D14008400010BDF0B51FB482B0054670
:100470000C0003D0084604F073FD02E004F070FDA8
:100480002030024600902146284600F037F9049BB0
:10049000059A04460F4618431143084314D01846E2
:1004A00010431BD0009840210A1A1846059900F005
:1004B00035F905460E46009A0599049800F01EF994
:1004C000084305D0012004E02046394607B0F0BDBE
:1004D0000020C11705430E432C43374300990E9863
:1004E0006305401A7905E40A00220C43FD0A0A302C
:1004F00002D500200146E9E70105101969410C9C6D
:100500000D9D00196941FFF7A2FFDFE7F0B507462F
:100510000846584087B0C00F049048000E46590066
:1005200040084908BC1A884105D2384631461E4663
:1005300017460B4602465800400810434CD0300D79
:10054000039040055900400D490D0590401A029056
:10055000402872DA18030121000B090508430190B5
:1005600004980092002805D0019952420020884149
:1005700000920190029840210A1A0199009800F017
:10058000BDF805460C466B4607CB00F0D8F8C019FD
:100590007141039A0E0D0023D71756401A467A4030
:1005A000164344D0049A002A2DD0029A012A039AB5
:1005B00015DC1205C01A914101263605001C714157
:1005C000D20F059ED2070093019202962A46234637
:1005D000FFF74AFF07B0F0BD38463146FAE7160587
:1005E000224A0F46B218C01AB74101210905001C62
:1005F0004F4100187F41114618187941E20F10430E
:100600006D19644113E0E2076D0815436408C207E1
:100610001443039A01261205C01A91413605001CA5
:100620007141CE07400830434908C01851412A465D
:100630002346FFF70CFFCDE7FFE7049801224000B7
:10064000C117121A00238B4104983146C417381A77
:10065000A141EEE730B40124E407634030BC55E724
:1006600030B40124E407614030BC4FE70000E0FFF4
:100670004A0009030123090B1B0519430A4B10B556
:10068000520D9A4202DA0020014610BD064B343367
:100690009A4203DC9A1A00F041F810BD034BD218BD
:1006A00000F02CF810BD0000FF030000CDFBFFFFA1
:1006B00010B5002904DB0124E40740428C412146A7
:1006C000002B04DB1C460123DB075242A341994265
:1006D00000D1904210BD0000064C0125064E05E0F9
:1006E000E36807CC2B430C3C98471034B442F7D353
:1006F000FFF7F0FCBC8B0008DC8B000810B5202A4B
:1007000004DB0146203A9140002010BD9140202397
:100710009C1A0346E3401943904010BD10B5202AAF
:1007200004DB0846203AD040002110BD0B46D340E0
:10073000D0402024A21A91400843194610BD10B59C
:10074000202A06DBCB170846203A1041C1170B437D
:1007500006E00B461341D0402024A21A91400843E2
:10076000194610BD80B584B0039000F0C7FA002090
:10077000009000F0FBFC01F093FA02A9088001A8A8
:1007800000990170FFE701A80078112810DCFFE74D
:100790001348006801A90978C840C007002801D0A3
:1007A000FFE705E0FFE70198401C01A90870EAE7B0
:1007B000029801A90A785200094B9A18908118688A
:1007C0005A6802435A60002018600878102803DB3A
:1007D000FFE700F055FCFFE700BF04B080BDC04656
:1007E000B403002080B582B00020022100F008FE92
:1007F000002809D0FFE700200221019100F0EEFD62
:100800000198FFF7AFFFFFE702B080BD80B504F0AD
:10081000C1FA012001F01CF8002806D0FFE70120F2
:1008200001F00EF803F096FBFFE780BD80B504F001
:10083000B1FA80BD80B504F0ADFA42F2000001F0DB
:1008400007F8002807D0FFE742F2000000F0F8FFA9
:1008500003F078FBFFE780BD80B582B0FFE70120A1
:1008600000F046F8019000F0A1F9000080B586B0D4
:10087000049003A80221017002A80F2101700078E2
:1008800005F01AF801900198002804D1FFE705A8A7
:100890000121017021E0019802A90A78002103F0EA
:1008A0003BFA019800880F49884207D0FFE701987A
:1008B00004F0D8FF05A8012101700EE00498019909
:1008C00002AA1278FFF71AFC01990090084604F07A
:1008D000C9FF039805A90870FFE705A8007806B0CE
:1008E00080BDC0463A5A000070477047704700000C
:1008F00080B586B0014604AA107003A802220270D7
:1009000002A80F2202700078009104F0D5FF019038
:100910000198002804D1FFE705A8012101701CE01F
:1009200004A80078002806D0FFE70E485A2141703D
:100930003A21017004E00B48002141700170FFE78B
:1009400002A802780748002104F036FA019804F062
:1009500089FF039805A90870FFE705A8007806B08D
:1009600080BDC0463404002080B584B00290029857
:10097000401E000E002803D0FFE70120039013E083
:100980000298401E0A4908600020C14303220190DA
:100990000846114600F086F80648019901600648AD
:1009A000072202600391FFE7039804B080BDC046B0
:1009B00014E000E018E000E010E000E080B503F093
:1009C00033FC80BD80B582B020480168012211430C
:1009D0000160FFE71D4800688007002801D4FFE799
:1009E000F8E71B4801681B4A1140016001681A4A78
:1009F0001140016015480168184A1140016018480B
:100A000001680F22914301601648016840F2031209
:100A10009143016001680122130499430160016858
:100A2000D3079943016010480168914301600F4862
:100A3000002101600192009103F054FD0198C0066D
:100A4000009902F00DFE02B080BDC04600100240C9
:100A5000041002400C00FF08FFFFC277FFFFF2FE08
:100A60002C100240301002403410024008100240A6
:100A700081B001466A461070107840B200280DD44B
:100A8000FFE76846007840B21F2102460A40012174
:100A9000914040098000024A8150FFE701B0704751
:100AA00000E100E070B582B0024601AB1870009121
:100AB000187840B2002817D4FFE701A8017849B29E
:100AC0000322D2431140384BC958007840B2840702
:100AD000E40EFF25A540A943009DAD01EDB2A54060
:100AE00029431040C1501AE001A801780F2211409B
:100AF00008390323DB4319402A4C0959007840B2D6
:100B00008507ED0EFF26AE40B143009EB601F6B25A
:100B1000AE4031431040083818400151FFE702B0A1
:100B200070BDC04670B582B0024601AB187000912E
:100B3000187840B2002817D4FFE701A8017849B21D
:100B40000322D2431140184BC958007840B28407A1
:100B5000E40EFF25A540A943009DAD01EDB2A540DF
:100B600029431040C1501AE001A801780F2211401A
:100B700008390323DB4319400A4C0959007840B275
:100B80008507ED0EFF26AE40B143009EB601F6B2DA
:100B9000AE4031431040083818400151FFE702B021
:100BA00070BDC0461CED00E000E400E0BFF34F8FD5
:100BB000084809490160BFF34F8FFFE700BFFDE719
:100BC000BFF34F8F034804490160BFF34F8FFFE726
:100BD00000BFFDE70CED00E00400FA0580B582B02F
:100BE000062002F019FE40F2005003F05DF80F48B5
:100BF00003F05AF80020019000F0B6F9022001211C
:100C0000009100F0E1F90098009900F02DF80098AB
:100C1000009900F08FF807204104009800F0CEF80A
:100C2000019800F055F802B080BDC04609060000EA
:100C3000E4480168082211430160FFE7E1480068C9
:100C40000007002801D5FFE7F8E7DE480168042225
:100C500011430160FFE7DB4800684007002801D529
:100C6000FFE7F8E77047C04683B0024602AB187052
:100C7000019118780128009004D0FFE7009802281D
:100C80000FD01DE0B34801680F22120591430160A7
:100C9000019909050D4BC918114002680A43026009
:100CA0000FE0094801680322120591430160019990
:100CB0000905064BC918114002680A43026000E0AA
:100CC000FFE703B07047C046382401400000F0FF42
:100CD00081B000900098002807D0FFE7F048016835
:100CE00040F600021143016006E0ED48016840F65D
:100CF000000291430160FFE701B07047E8480168D6
:100D00000122914301607047E548016840F20012FA
:100D1000114301607047C046E1480068C0070028E1
:100D200006D1FFE7DE480168012211430160FFE7B9
:100D30007047C04610B582B00A46034601AC207029
:100D400068460170007800281BD0FFE701A80078F2
:100D5000C007002807D0FFE7D1480168012212052B
:100D600011430160FFE701A800788007002807D53C
:100D7000FFE7CB48016848F2000211430160FFE73A
:100D80001AE001A80078C007002807D0FFE7C44890
:100D900001680122120591430160FFE701A8007874
:100DA0008007002807D5FFE7BD48016848F2000228
:100DB00091430160FFE7FFE702B010BD83B0024638
:100DC00002AB1870019118780128009004D0FFE759
:100DD000009802280BD015E0B148016807225204A0
:100DE00091430160019902680A4302600BE0AC483C
:100DF000016847F2000291430160019902680A43C9
:100E0000026000E0FFE703B07047C046B0B585B0B0
:100E10000B46044604AD287003A80170029228789E
:100E2000052818D8FFE74D480168019104A90A7800
:100E300005231C4654431F22A240019C9443019465
:100E400003AA127809784B439A4001991143019102
:100E50000199016040E004A800780B281AD8FFE748
:100E60003D480168019104A90A7805231C465443B2
:100E70001E3C1F22A240019C9443019403AA1278B5
:100E800009784B431E3B9A40019911430191019906
:100E9000016020E004A800780F281AD8FFE72D4849
:100EA0000168019104A90A7805231C4654433C3C7F
:100EB0001F22A240019C9443019403AA127809784E
:100EC0004B433C3B9A4001991143019101990160C8
:100ED00000E0FFE7FFE7FFE703A80078092817D83D
:100EE000FFE720480168009103A90A7803231C4604
:100EF00054430722A240009C94430094029A09782C
:100F00004B439A40009911430091009901601FE002
:100F100003A80078122819D8FFE71148016800914A
:100F200003A90A7803231C4654431E3C0722A2400F
:100F3000009C94430094029A09784B431E3B9A40CC
:100F40000099114300910099016000E0FFE7FFE77D
:100F500005B0B0BD2C2401403024014034240140B0
:100F60000C2401401024014081B0009043480168E6
:100F70000322120691430160009902680A4302604D
:100F800001B0704781B001466A4610701078C00702
:100F9000002807D0FFE7424801680122920511436B
:100FA0000160FFE7684600788007002807D5FFE763
:100FB0003B4801680122520511430160FFE701B07F
:100FC0007047C0460824014082B00A460190684636
:100FD00001700078002827D0FFE701A84078C007FB
:100FE000002807D0FFE72548016840F200121143AE
:100FF0000160FFE701A840784007002807D5FFE718
:101000001E48016840F2004211430160FFE701A859
:1010100000788007002806D5FFE7214801680222F2
:1010200011430160FFE726E001A84078C0070028CF
:1010300007D0FFE71148016840F2001291430160B8
:10104000FFE701A840784007002807D5FFE70B48D5
:10105000016840F2004291430160FFE701A8007877
:101060008007002806D5FFE70D480168022291435A
:101070000160FFE7FFE702B07047C046042401406B
:10108000074801680122D205914301607047C046BC
:10109000034801680122D205114301607047C04630
:1010A0000824014080B582B01348006B002821D08D
:1010B000FFE701A800210170FFE701A800781128CF
:1010C00017DCFFE70C48006B01A90978C840C0078E
:1010D000002808D0FFE701A800788100064A5118CF
:1010E000496B884706E0FFE70198401C01A908709A
:1010F000E3E7FFE702B080BDB403002080B50448F9
:10110000002141700170022203F056FE80BDC046EE
:10111000340400200C480068002805D0FFE70A4886
:101120000168491E0160FFE77047C04681B000902A
:10113000009805490860FFE703480068002801D0CF
:10114000FFE7F9E701B070473004002010B581B027
:1011500001466A461070107814224243E148135841
:101160000124A343135001B010BDC04610B581B097
:1011700001466A461070107814224243D948135829
:1011800001242343135001B010BDC04610B581B0F7
:1011900001466A461070107814224243D148135811
:1011A00020242343135001B010BDC04670B592B047
:1011B00013460C46054611AE307010A801700FA9F9
:1011C0000A703278079010460693059404950396AA
:1011D000029100F039F808A800218176184A0A9295
:1011E0000122427640F200420B921E220C92154AD6
:1011F0000892017640F20011099143F200010D912D
:1012000003990A7801901046019900F049F8039873
:101210000078FFF7BBFF0398007800F053F90398BC
:101220000078022100F0CAF807980078029909783E
:1012300002F0FCF903980078FFF798FF12B070BD38
:10124000780300204C24014070B581B001466A4605
:101250001070107814231C464443A24825580126D8
:10126000B543255014781D46654300242C50107852
:101270001D46454350482C5010781D4645434C4868
:101280002C50107843434B481C50107880000F229C
:1012900082405A4803681343036001B070BDC046E2
:1012A000B0B586B0024605AB18700491187802926A
:1012B0000193FFF74BFF0498006801990A78142303
:1012C0001C4654433A4AA050049880680A781C4649
:1012D0005443384AA0500498008A0A781C46544364
:1012E000354AA05008781A4642437E481258039265
:1012F000039A43F60074A2430392049A5468D56893
:101300002C4352691443039A22430392039A0C78A4
:1013100063431A500498007E01280AD1FFE705A80C
:101320000078142141436F480A5840231A430A5059
:1013300009E005A80078142141436A480A5840236F
:101340009A430A50FFE70498407E01280AD1FFE73C
:1013500005A800781421414362480A5880231A43A3
:101360000A5009E005A80078142141435D480A5855
:1013700080239A430A50FFE70498807E00280AD110
:10138000FFE705A800781421414356480A58102366
:101390009A430A5009E005A80078142141435148B6
:1013A0000A5810231A430A50FFE706B0B0BDC046E2
:1013B00010000240140002400C00024010B582B040
:1013C000024601AB187000910098197814234B4322
:1013D00044495C5804435C5002B010BD82B00246E0
:1013E00001AB187000910098197889008840034972
:1013F0000B6803430B6002B07047C0460400024014
:1014000086B0024604AB1870039100200290019050
:1014100003980228009008D0FFE70098042816D00F
:10142000FFE70098082824D035E025480068039994
:1014300004AA13789B009940084001901078142169
:1014400041432848085802210840029024E01C48E3
:101450000068039904AA13789B0099400840019002
:101460001078142141431F48085804210840029075
:1014700012E013480068039904AA13789B0099406E
:10148000084001901078142141431648085808215B
:101490000840029000E0FFE70198002808D0FFE72D
:1014A0000298002804D0FFE705A80121017003E09D
:1014B00005A800210170FFE705A8007806B0704775
:1014C0000000024010B581B001466A4610701078E5
:1014D000142242430348135844F20004A343135018
:1014E00001B010BD0800024010B584B013460C4690
:1014F000039002A8017001A80270FFE75B485C49F5
:1015000000F03EFF002801D0FFE7F7E7574800F062
:1015100097FFFFE7554840F2005100F031FF0028E7
:1015200001D1FFE7F6E7534801880120C2434F4845
:1015300000F04BFFFFE74D48524900F021FF002823
:1015400001D1FFE7F7E749484E4900F0F9FEFFE710
:1015500046481E4900F014FF012801D0FFE7F7E7D5
:1015600002A80178414800F0D0FEFFE73F48184943
:1015700000F006FF002801D1FFE7F7E7FFE701A829
:1015800001784A1E0270002912D0FFE70398017803
:10159000364800F0BAFE0398401C0390FFE733483A
:1015A0000B4900F0EDFE002801D1FFE7F7E7E6E781
:1015B0002E4800F04FFFFFE72C4800688005002808
:1015C00001D5FFE7F8E704B010BDC04607050000ED
:1015D0000205000080B582B000200190FFE7FFE720
:1015E0002248234900F0CCFE002801D0FFE7F7E7AE
:1015F0001E4800F025FFFFE71C4840F2005100F0B4
:10160000BFFE002801D1FFE7F6E71A480188012054
:10161000C243164800F0D9FEFFE717480068019062
:10162000FFE7019815490842F7D0FFE701988007C6
:1016300000280AD5FFE70D481249009000F080FE0F
:10164000009800F007FF02B080BD08480C4900F088
:1016500077FEFFE7054800F0FDFEFFE7034800685E
:101660008005002801D5FFE7F8E7B8E700540040FF
:10167000010600004404002014540040020400004D
:101680000A0500000105000080B5A4480121017091
:10169000074802688A4302600168022291430160A0
:1016A000044802F001FB002001F0EAFF80BDC046C3
:1016B00010E000E01C07000080B582B00E48FFF784
:1016C000D5F8022811D1FFE70B48017840780002D5
:1016D00040180A49884203D0FFE70120019007E043
:1016E000FFF70CFD0020019002E001200190FFE7D0
:1016F000019802B080BDC046340400203A5A000070
:1017000010B584B0144802F0CFFA144802F0CCFAB5
:10171000134802F0C9FA40F2006002F0C5FA012055
:1017200002900721019142F2000100917A4A0223BE
:101730000D24039010461A46234602F013FC03982A
:101740000290052101910090064800230399039A15
:1017500002F008FC04B010BD1105000013050000E4
:101760001205000000040048B0B585B013460C46D1
:10177000049003A8017002A90A700499454A1568EB
:101780008D43156004992B4A15688D4315600499A3
:10179000294A15688D4315600499284A15688D43B8
:1017A000156000780028019004D0FFE70198012817
:1017B00006D00BE0049837490A6802430A6006E045
:1017C00004981C490A6802430A6000E0FFE702A887
:1017D00000780028009008D0FFE7009801280FD07B
:1017E000FFE70098022816D020E0049812490A6802
:1017F00002430A60049811490A6882430A6016E0AD
:1018000004980D490A6882430A6004980B490A68E3
:1018100002430A600BE0049807490A6802430A6021
:10182000049806490A6802430A6000E0FFE705B031
:10183000B0BDC04604040140080401400C0401404E
:1018400081B0009000981249086001B07047C0460E
:1018500084B002900E4800680299084001900D483B
:1018600000680299084000900198002808D0FFE71E
:101870000098002804D0FFE703A80121017003E0CD
:1018800003A800210170FFE703A8007804B07047A7
:1018900014040140000401407047000080B59E48D8
:1018A0008088C007002807D1FFE703F000FA03F0A3
:1018B00003FA02F0B3FCFFE780BDC04680B5092003
:1018C000C00648F2000100F079FA80BD80B5E34817
:1018D00042F2000100F03CFB002803D1FFE702F0D8
:1018E00009FBFFE78C48408900280BD0FFE78A48B6
:1018F0004189491E41810804002803D1FFE7FFF711
:10190000C3FEFFE782480078002803D1FFE7FFF716
:10191000C9FBFFE780BDC046000800484604002020
:1019200080B588B046480078002819D0FFE74548C0
:1019300000880A2803DCFFE70020079004E0414804
:1019400000880A380790FFE707983E490880088812
:10195000002804D1FFE73A4800210170FFE71FE0AB
:10196000384801880A310180008840F660118842B9
:1019700004DBFFE740F66010069003E03148008882
:101980000690FFE706982F490880088840F6601106
:10199000884204D1FFE72A4801210170FFE7FFE7F1
:1019A0002948022100F0BAF82848012100F0B6F8D1
:1019B0002748112100F0B2F822480288AB490023E1
:1019C000059008460491194602F0DEFF059802884A
:1019D0000321049802F0D8FF4F48007B01282DD145
:1019E000FFE74D48002101730390FFF76FFF039855
:1019F000417B012921D1FFE7474800214173029033
:101A0000FFF74AFF0298817B012915D1FFE7424881
:101A1000002181730190FFF751FF0198C17B0129DB
:101A200009D1FFE73C480021C1738188491C8180AE
:101A3000FFF734FFFFE7FFE7FFE7FFE708B080BDF0
:101A40005A0400205C04002064040020700400207C
:101A50006004002080B582B00748019000F08AFD44
:101A6000019800F019FD0548009000F083FD0098F2
:101A700000F012FD02B080BD0C0000202C00002000
:101A800080B501F013FEFFF73BFE214800210170F5
:101A900002F030FA754801F01DFEFFF79FF801F0E3
:101AA000B3FA1F2000F0B2FD02F03AFD00F085FC11
:101AB000FFF702FE002802D1FFE700BFFFE7FFE7C4
:101AC00000F07CF8FFF7C6FF12480078002804D029
:101AD000FFE700F0C9FC00BFFFE70F48408800287F
:101AE00007D0FFE70C484188491E4180FFF718FFE7
:101AF000FFE707480078002808D0FFE7064840893C
:101B0000002803D1FFE7FFF7BFFDFFE7D8E7C04696
:101B1000460400206B0400204804002080B584B0F7
:101B20000A46039002A801700078012181400191CA
:101B300011484068019908421BD0FFE702A80078CD
:101B400040000D49081880890091FEF7C9FB0B4A37
:101B50000B4BFEF7E5FA00220A4BFEF749FBFEF7B6
:101B6000D3FB03990860019800994A6882434A6050
:101B7000FFE704B080BDC046B40300206666666619
:101B800066660A400000B04082B0019068460121BC
:101B90000170FFE70198092804D8FFE7684600783C
:101BA00002B0704701980A21B0FBF1F00190FFE705
:101BB0000098401C69460870ECE70000B0B582B0A0
:101BC00023480921C9063CC93CC03CC93CC03CC9AA
:101BD0003CC02048DD493CC93CC03CC93CC03CC974
:101BE0003CC01D481D493CC93CC03CC93CC03CC927
:101BF0003CC01B481B493CC93CC03CC93CC03CC91B
:101C00003CC01948194958220192FEF777FA184842
:101C10001849019AFEF772FA17481849019AFEF717
:101C20006DFA17481749019AFEF768FA16481749DE
:101C3000019AFEF763FA16481649019AFEF75EFA12
:101C400015481649019AFEF759FA02B0B0BDC046D0
:101C50005000002080000020B00000200008004854
:101C6000E00000200014004810010020002C01407A
:101C7000C8020020000400402003002000100040A3
:101C80006801002000200040C00100200040014009
:101C9000180200200044014070020020004801406A
:101CA00083B000200290019069460870FFE7684603
:101CB00000781D280EDCFFE76846007840000949DF
:101CC000085A019908180190FFE70098401C6946DE
:101CD0000870ECE701981E21B0FBF1F080B203B070
:101CE0007047C0467803002086B0059004910392A7
:101CF0000598006A01900598406A009002A80021AA
:101D00000180FFE702A8008807281ED8FFE702A885
:101D100000880399C140C807002810D0FFE702A837
:101D2000018889000F228A40019991430191049909
:101D3000008880008140019808430190FFE7FFE799
:101D40000298401C02A90880DCE702A80821018053
:101D5000FFE702A800880F2820D8FFE702A8008824
:101D60000399C140C807002812D0FFE702A80188E4
:101D7000890020390F228A400099914300910499EB
:101D80000088800020388140009808430090FFE7D9
:101D9000FFE70298401C02A90880DAE7019805993C
:101DA000086200980599486206B0704782B00190B9
:101DB000009100980199886202B0704782B001904A
:101DC000009100980199C86202B0704780B582B056
:101DD000014601AA107010781128009077D8009859
:101DE000810001A251188F4600F022B800F028B8F7
:101DF00000F02EB800F034B800F03AB800F040B867
:101E000000F046B800F04CB800F052B800F057B8F7
:101E100000F05DB800F05BB800F059B800F057B8BA
:101E200000F055B800F053B800F050B800F04EB8CC
:101E30000920C00603210022012300F09EF846E09D
:101E40000920C00603210022022300F096F83EE09C
:101E50000920C00603210022042300F08EF836E09A
:101E60000920C00603210022082300F086F82EE096
:101E70000920C00603210022102300F07EF826E08E
:101E80000920C00603210022202300F076F81EE07E
:101E90000920C00603210022402300F06EF816E05E
:101EA0000920C00603210022802300F066F80EE01E
:101EB000264803210022012300F05FF807E02348B1
:101EC00003210022022300F058F800E0FFE702B0EF
:101ED00080BDC04680B586B01A4801F0E5FE1A48BC
:101EE00001F0E2FE1948012140220590049103927D
:101EF000FFF7FAFE80200599029008460499029A9D
:101F0000FFF7F2FE02200599019008460199049A14
:101F1000039B00F032F803200599009008460499CD
:101F2000009A039B00F071F805980199049A029BAE
:101F300000F023F805980499009A029B00F065F8D8
:101F400006B080BD1205000015070000000400481F
:101F500083B001900091019800690099084204D073
:101F6000FFE702A80121017003E002A8002101702F
:101F7000FFE702A8007803B0704787B0069005918C
:101F8000049203930698006801900698C068009038
:101F900002A800210180FFE702A800880F282CD8A2
:101FA000FFE702A800880399C140C80700281ED097
:101FB000FFE702A801884900032213468B400199DC
:101FC00099430191059903885B009940019B0B435C
:101FD0000193018849008A40009991430091049936
:101FE000008840008140009808430090FFE7FFE729
:101FF0000298401C02A90880CEE701980699086063
:1020000000980699C86007B0704710B586B00C46B6
:10201000059004A80170039202930078012806D16C
:10202000FFE7029805994A6802434A6005E0029872
:1020300005994A6882434A60FFE7059880680090E6
:1020400001A800210180FFE701A800880F281ED801
:10205000FFE701A800880299C140C807002810D0F6
:10206000FFE701A80188490003228A4000999143B3
:102070000091039900884000814000980843009037
:10208000FFE7FFE70198401C01A90880DCE7009802
:102090000599886006B010BD82B00190009100984B
:1020A000012807D1FFE70198016840F2004211437F
:1020B000016006E00198016840F20042914301602E
:1020C000FFE702B0704782B00190009100980028AD
:1020D00007D1FFE70198016840F600021143016053
:1020E00006E00198016840F6000291430160FFE7B5
:1020F00002B0704780B588B0079006910592022023
:1021000001F050FC049004986849B0FBF1F0029093
:1021100002987F2803D3FFE77F200290FFE707980C
:102120004068009000987F218843009002980099B1
:102130000143009100980799486006985C498842DD
:1021400030D8FFE704985949B0FBF1F0401C0190EA
:1021500001987F2804D3FFE707987F2101620CE0F4
:102160000198022804D8FFE707980221016203E0E2
:10217000019807990862FFE7FFE70498069949006C
:10218000B0FBF1F003900398032803D8FFE7042085
:102190000390FFE70398474908400799CA6902433B
:1021A000CA6181E006985449884242D8FFE7029804
:1021B00040F22C11414340F2E830B1FBF0F0401CFA
:1021C00007990862059800280ED1FFE70498069940
:1021D00003224A43B0FBF2F003900798C16944F22E
:1021E00000029143C1610DE00498069919224A4307
:1021F000B0FBF2F003900798C16944F2000211436A
:10220000C161FFE703A800880005002805D1FFE7AA
:102210000398012108430390FFE70798C16948F23A
:1022200000021143C16103980799CA690243CA6158
:1022300039E002987821414340F2E830B1FBF0F0F8
:10224000401C07990862059800280ED1FFE7049802
:10225000069903224A43B0FBF2F003900798C16944
:1022600044F200029143C1610DE0049806991922DD
:102270004A43B0FBF2F003900798C16944F20002B0
:102280001143C161FFE70798C16948F20002114399
:10229000C16103980799CA690243CA6107989021EE
:1022A00001224250FFE7FFE708B080BD40420F0027
:1022B000A0860100FF0F000080B582B00C4801F03D
:1022C000F3FC0C480C49002201900092FFF712FF2A
:1022D000A02301980099009A00F090F8019800F06E
:1022E00025F801210198FFF7D7FE02B080BDC04656
:1022F0001507000000540040801A060081B00090CD
:1023000000980069C0B201B0704782B00A460190DF
:102310006846017000780199086102B070470000BA
:102320000148A021018070474404002081B0009042
:102330000098016801221143016001B0704700005C
:1023400082B00A4601906846018000880B498842A5
:1023500005D1FFE701984069019989690CE0684659
:1023600000881F2102460A4001219140019A8009FC
:1023700013588B431350FFE702B07047010500006C
:1023800083B00A46019068460180019903889B0941
:10239000C95800881F231840C140C807002804D02E
:1023A000FFE702A80121017003E002A800210170EB
:1023B000FFE702A8007803B0704780B5FFF78AFDF9
:1023C000FFF77AFFFFF7ACFF80BD83B00290019169
:1023D00000920098801C002805D1FFE70198012198
:1023E0008843019004E00198012108430190FFE730
:1023F00001980299086103B07047000085B004900D
:1024000003910292019300200090049800680090CC
:10241000009802218843009003980099014300919D
:1024200000980499086001980449084001900298B6
:10243000019908430499886005B07047FF030000C4
:1024400081B000900098016840F2001211430160D1
:1024500001B0704781B000900098016840F20022FE
:102460001143016001B0704780B50920C00641F2F8
:102470000001FFF7A3FC59480078022806D1FFE7C6
:10248000044801784A4251410170FFE75348002156
:10249000017080BD4604002080B582B00190019893
:1024A000006900690199898A08425ED1FFE75648B0
:1024B00000780199097808400006002850D0FFE70D
:1024C0000198C068008800284AD0FFE7019840685A
:1024D0000078C00700281ED1FFE70198C068008877
:1024E00023490988401880B20199098B884211DD7F
:1024F000FFE70198406801780122114301700198BB
:10250000007F002805D0FFE70198007A3349087062
:10251000FFE7FFE723E00198406800788007002884
:102520001CD4FFE70198C068008811490988401849
:1025300080B20199498B88420FDDFFE70198407A0C
:102540002649087001984068017802221143017001
:102550000198C06800210180FFE7FFE7FFE703E083
:10256000019801F0D9FCFFE7FFE702B080BDC0464B
:102570004804002080B582B001902348007801997A
:10258000097808400006002825D0FFE70198006977
:1025900000690199898A08421DD0FFE701984068C7
:1025A0000078C007002812D0FFE701984068007843
:1025B000800700280BD4FFE70198007F002805D191
:1025C000FFE70198007A05490870FFE7FFE70198E7
:1025D00000F006F8FFE702B080BDC0466B040020A3
:1025E00081B000900098007807490A7882430A7009
:1025F0000098C06800210180009840680178FC22A2
:102600001140017001B070476804002010B588B017
:10261000014607AA10800020EF2240F23F130490E9
:10262000049C0391214600F0E1FED848042101609A
:10263000D5480121016004980690FFE706988009BB
:10264000042820D8FFE700200590FFE70598EF2831
:1026500014D8FFE707A841780D4A0290104601926E
:1026600001F0B8FD02990978019A0090104601F036
:10267000B1FDFFE70598401C0590E7E7FFE70698E6
:10268000401C0690DAE7C1480121016008B010BD86
:1026900000380040F0B58DB0129C1D4616460F461E
:1026A000039002900CA80190039800910199088072
:1026B0000BA9009808800AA90A8009A90B800C9927
:1026C00005AA1180B04901220A6004A909220A70F2
:1026D000FFE712980078002800D14FE112980078A7
:1026E0007F287ADCFFE71298007806A9088008881E
:1026F0000D2808D1FFE705980CA908800B98103029
:102700000BA9088065E006A80088212805DBFFE703
:102710000698203806A9088003E006A80021018059
:10272000FFE708A800210170FFE708A800780F283C
:102730004ADCFFE707A800210170FFE707A800783F
:1027400007283BDCFFE706A80088000108A90978F4
:1027500040189049085C07A909788022CA401042B5
:102760000FD0FFE70C9807A9097840180B9908AA21
:10277000127889180AAA128880B289B200F022FC65
:1027800016E00AA8008809A9098888420FD0FFE747
:102790000C9807A9097840180B9908AA127889188B
:1027A00009AA128880B289B200F00CFCFFE7FFE7AB
:1027B000FFE70798401C07A90870BFE7FFE70898E4
:1027C000401C08A90870B0E70C9808300CA90880D4
:1027D000FFE71298401C1290CFE006A8002101806C
:1027E000FFE706A8008804A90978884200DBBCE05E
:1027F00006A80088232141436548405C1299097866
:10280000884200D0ABE006A80088232141436048FD
:102810004018407812994978884200D09FE008A873
:1028200000210170FFE708A800780F2800DD95E07F
:1028300007A800210170FFE707A8007807283EDC01
:10284000FFE706A80088232141435148401808A902
:10285000097849004018C07807A909788022CA4041
:1028600010420FD0FFE70C9807A9097840180B9980
:1028700008AA127889180AAA128880B289B200F0D0
:10288000A1FB16E00AA8008809A9098888420FD090
:10289000FFE70C9807A9097840180B9908AA127845
:1028A000891809AA128880B289B200F08BFBFFE771
:1028B000FFE7FFE70798401C07A90870BCE707A8D7
:1028C00000210170FFE707A80078072840DCFFE738
:1028D00006A80088232141432D48401808A90978FB
:1028E00049000818007907A909788022CA401042D7
:1028F00010D0FFE70C9807A90978401808300B9909
:1029000008AA127889180AAA128889B280B200F03F
:1029100059FB17E00AA8008809A90988884210D045
:10292000FFE70C9807A90978401808300B9908AA06
:102930001278891809AA128889B280B200F042FB85
:10294000FFE7FFE7FFE70798401C07A90870BAE711
:10295000FFE70898401C08A9087064E7FFE7FFE755
:102960000698401C06A908803BE71298801C12902C
:102970000C9810300CA90880FFE7AAE6EC4801216A
:1029800001600DB0F0BDC04628040048180400489E
:10299000A787000824590008F0B58DB0129C1D4689
:1029A00016460F46039002900CA8019003980091E0
:1029B000019908800BA9009808800AA90A8009A932
:1029C0000B80DA4901220A6005A909220A7004A9CC
:1029D00000220A80FFE712980078002800D1A0E1C9
:1029E000129800787F287FDCFFE71298007806A90C
:1029F00008800888212805DBFFE70698203806A90B
:102A0000088003E006A800210180FFE708A8002154
:102A10000170FFE708A8007817285DDCFFE706A82B
:102A20000188302213464B4308A90C7864001B1917
:102A3000C14CE35C1B0204AD2B8000884243087844
:102A4000400010180019407804990143298007A814
:102A500000210170FFE707A800780B2836DCFFE7AC
:102A600004A8008807A9097848F20002CA40104269
:102A70000FD0FFE70C9807A9097840180B9908AA0E
:102A8000127889180AAA128880B289B200F09AFADC
:102A900016E00AA8008809A9098888420FD0FFE734
:102AA0000C9807A9097840180B9908AA1278891878
:102AB00009AA128880B289B200F084FAFFE7FFE722
:102AC000FFE70798401C07A90870C4E7FFE70898CC
:102AD000401C08A908709DE71298401C12900C98A1
:102AE0000C300CA908801BE106A800210180FFE73B
:102AF00006A8008805A90978884200DB08E106A835
:102B000000884B2141438B48405C129909788842E8
:102B100000D0F7E006A800884B21414385484018C3
:102B2000407812994978884200D0EBE008A800214B
:102B30000170FFE708A80078172800DDE1E007A88A
:102B400000210170FFE707A8007807283FDCFFE7B6
:102B500006A800884B2141437648401808A9097807
:102B600003224A438018C07807A909788022CA4006
:102B700010420FD0FFE70C9807A9097840180B996D
:102B800008AA127889180AAA128880B289B200F0BD
:102B900019FA16E00AA8008809A9098888420FD006
:102BA000FFE70C9807A9097840180B9908AA127832
:102BB000891809AA128880B289B200F003FAFFE7E7
:102BC000FFE7FFE70798401C07A90870BBE707A8C5
:102BD00000210170FFE707A80078072841DCFFE724
:102BE00006A800884B2141435248401808A909789B
:102BF00003224A431018007907A909788022CA40A5
:102C0000104210D0FFE70C9807A909784018083047
:102C10000B9908AA127889180AAA128889B280B278
:102C200000F0D0F917E00AA8008809A909888842AD
:102C300010D0FFE70C9807A90978401808300B99C5
:102C400008AA1278891809AA128889B280B200F0FD
:102C5000B9F9FFE7FFE7FFE70798401C07A90870ED
:102C6000B9E707A800210170FFE707A80078072847
:102C700041DCFFE706A800884B2141432D4840185E
:102C800008A9097803224A431018407907A909784E
:102C90008022CA40104210D0FFE70C9807A909789B
:102CA000401810300B9908AA127889180AAA1288BD
:102CB00089B280B200F086F917E00AA8008809A955
:102CC0000988884210D0FFE70C9807A909784018B6
:102CD00010300B9908AA1278891809AA128889B2AB
:102CE00080B200F06FF9FFE7FFE7FFE70798401CAD
:102CF00007A90870B9E7FFE70898401C08A9087001
:102D000018E7FFE7FFE70698401C06A90880EFE6F2
:102D10001298801C12900C9818300CA90880FFE7BC
:102D200059E66748012101600DB0F0BD2804004854
:102D300018040048E2880008155F0008F0B58FB05D
:102D4000149C1D4616460F46049003900EA8029050
:102D500004980191029908800DA9019808800CA996
:102D60000A800BA90B800E9907AA118052490122F3
:102D70000A6006A9514A0A8005A900220A80FFE7D5
:102D800014980078002800D191E0149800787F28EA
:102D900000DD8AE01498007808A9088008880D28CA
:102DA00008D1FFE707980EA908800D9810300DA9EB
:102DB000088076E008A80088212805DBFFE708984E
:102DC000203808A9088003E008A800210180FFE757
:102DD0000AA800210170FFE70AA800781F285BDC21
:102DE000FFE708A8018889010AAA13785B00C918BF
:102DF000344B595C090205AC2180008880011178B0
:102E000049004018C018407805990143218009A85D
:102E100000210170FFE709A800780F2836DCFFE7E2
:102E200005A8008809A9097848F20002CA401042A2
:102E30000FD0FFE70E9809A9097840180D990AAA42
:102E4000127889180CAA128880B289B200F0BAF8F8
:102E500016E00CA800880BA9098888420FD0FFE76C
:102E60000E9809A9097840180D990AAA12788918AC
:102E70000BAA128880B289B200F0A4F8FFE7FFE73E
:102E8000FFE70998401C09A90870C4E7FFE70A9802
:102E9000401C0AA908709FE70E9810300EA9088000
:102EA000FFE71498401C149000E0FFE768E7E34850
:102EB000012101600FB0F0BD280400488107000027
:102EC00018040048E6700008F0B59BB0219C209DD6
:102ED0001E4617460B910A9009901AA808900A9866
:102EE00007910899088019A90B98088018A90A80E9
:102EF00017A90B8016A90C7014AA00231370209830
:102F000006950596049703910293FEF73DFE13A9DB
:102F100008700CA802990176119110910F910E91F1
:102F20000D910C91209A264902F006F803990A782F
:102F3000002A11D1FFE71A9815A90978C90040188D
:102F400019A9098818AA128817AB1B880CAC009421
:102F500080B2FFF79FFB2EE016A80078012812D15F
:102F6000FFE71A9815A909780C224A43801819A975
:102F7000098818AA128817AB1B880CAC009480B281
:102F8000FFF70AFD16E016A80078022811D1FFE726
:102F90001A9815A909780901401819A9098818AAC9
:102FA000128817AB1B880CAC009480B2FFF7C6FEEA
:102FB000FFE7FFE7FFE713A800781BB0F0BDC046AE
:102FC000B98B000870B588B013460C46054607AEAD
:102FD000308006A8018005A90A8032880088049004
:102FE0001046049A0391114602930194009500F053
:102FF00043FA0398407800F063FA0398007800F0F1
:103000005FFA08B070BD000080B590B000F0EAFF34
:10301000F548012101600F9100F0D4F9CB2000F0B8
:103020007BFA392000F04CFA2C200E9000F048FA80
:1030300000200D9000F044FA342000F041FA022004
:1030400000F03EFACF2000F067FA0D9800F038FA51
:10305000C1200C9000F034FA302000F031FAE82062
:1030600000F05AFA852000F02BFA0D9800F028FAAB
:1030700078200B9000F024FAEA2000F04DFA0D9829
:1030800000F01EFA0D9800F01BFAED2000F044FA53
:10309000642000F015FA03200A9000F011FA1220C3
:1030A00000F00EFA812000F00BFAF72000F034FA5D
:1030B000202000F005FAC02000F02EFA232000F0B6
:1030C000FFF90C9800F028FA1020099000F0F8F9A8
:1030D000C52000F021FA3E2000F0F2F9282000F08F
:1030E000EFF9C72000F018FA862000F0E9F9362041
:1030F000089000F011FA4820079000F0E1F93A201A
:1031000000F00AFA552000F0DBF9B12000F004FAD3
:103110000D9800F0D5F9182000F0D2F9B62000F093
:10312000FBF90820069000F0CBF9822000F0C8F9E6
:10313000272000F0C5F9F22000F0EEF90D9800F01C
:10314000BFF9262000F0E8F90F9800F0B9F9E02067
:1031500000F0E2F90F20059000F0B2F93120049060
:1031600000F0AEF92B2000F0ABF90C20039000F03A
:10317000A7F90E20029000F0A3F9069800F0A0F93C
:103180004E2000F09DF9F12000F09AF9372000F070
:1031900097F90720019000F093F9099800F090F951
:1031A0000A9800F08DF9029800F08AF9092000F0E1
:1031B00087F90D9800F084F9E12000F0ADF90D9841
:1031C00000F07EF9029800F07BF9142000F078F905
:1031D0000A9800F075F91120009000F071F901983B
:1031E00000F06EF9049800F06BF90C9800F068F9A3
:1031F000079800F065F9069800F062F9059800F06C
:103200005FF9039800F05CF9049800F059F9089808
:1032100000F056F9059800F053F9009800F07CF999
:103220000B98FDF783FF292000F076F90E9800F047
:1032300073F9AD480F99016010B080BD18040048C3
:10324000F0B597B01C9C1D4616460F460990089095
:1032500016A80790099806910799088015A806995D
:10326000018014A90A8013AA138012AB1C80B44BEE
:1032700001241C60079B1C8803880590204604914C
:103280001946039502960197009200F0F5F804980C
:103290000188079A1388C91A119100990B88059C17
:1032A00025885B1B1093119B002B03D4FFE70120A3
:1032B0000D9006E00020C0430D90119840421190FF
:1032C000FFE71098002803D4FFE701200C9006E0E8
:1032D0000020C0430C90109840421090FFE71198D6
:1032E00040000F90109840000E901198109988425D
:1032F00031DDFFE70E981199401A0B9000200A90DB
:10330000FFE70A981199884224DCFFE716A8008895
:1033100015A9098812AA1288FFF754FE0B980028F5
:103320000AD4FFE70F980B99081A0B900C9815997F
:10333000081815A90880FFE70E980B9908180B903C
:103340000D981699081816A90880FFE70A98401CDE
:103350000A90D6E730E00F981099401A0B900020A1
:103360000A90FFE70A981099884224DCFFE716A824
:10337000008815A9098812AA1288FFF723FE0B9866
:1033800000280AD4FFE70E980B99081A0B900D98A5
:103390001699081816A90880FFE70F980B990818C6
:1033A0000B900C981599081815A90880FFE70A9842
:1033B000401C0A90D6E7FFE74B480121016017B097
:1033C000F0BDC04680B582B05D4802210160642036
:1033D0000191FDF7ABFE4448019901603220FDF7F1
:1033E000A5FE02B080BDC04628040048F0B58FB0ED
:1033F0001C4615460E4607460A900EA809900A98E4
:103400000891099908800DA8089901800CA90A80E3
:103410000BAA13804A4B0790012018602A230690BC
:10342000184605940495039602970191009200F0C6
:1034300073F809980188080AC9B200F057F8019892
:103440000188080AC9B200F051F82B2000F064F896
:1034500007980188080AC9B200F048F80098018866
:10346000080AC9B200F042F82C2000F055F81E48B6
:10347000069901600FB0F0BD10B586B00A4603464C
:1034800005AC208004A801802A21039008460292FE
:103490000193009400F040F800980188080AC9B22E
:1034A00000F024F82B2000F037F803980188080A70
:1034B000C9B200F01BF82C2000F02EF806B010BDA9
:1034C00080B584B0014603AA107007480423036046
:1034D00010781C4A02901046029A0191114600F0A1
:1034E00079FE04B080BDC0461804004810B586B00F
:1034F0000A46034605AC207004A8017021780390A9
:10350000084602920193FFF7DBFF03980078FFF76C
:10351000D7FF06B010BD000080B584B0014603AAF5
:1035200010700748042303601078064A0290104682
:10353000029A0191114600F04DFE04B080BDC046D4
:10354000280400480038004080B588B0002007906B
:10355000069000F0CBFF314800F0A6FB304800F0A9
:10356000A3FB304800F0A0FB2F4800F09DFB092092
:10357000C006012140F2001205900491069B0392BF
:103580001A46039BFEF7F9FC05980699049A039BDB
:10359000FEF73BFD05980399FEF708FC40F6000096
:1035A0000599029008460499069A029BFEF7E5FCED
:1035B00005980699049A029BFEF727FD0598029943
:1035C000FEF7F4FB41F200000599019008460499CA
:1035D000069A019BFEF7D1FC05980699049A019B77
:1035E000FEF713FD05980199FEF7E0FB48F2000095
:1035F0000599009008460499069A009BFEF7BDFCC9
:1036000005980699049A009BFEF7FFFC059800991F
:10361000FEF7CCFBFFE7FEF733FAFCE711050000ED
:1036200012050000130500001605000010B586B055
:103630000A46034605AC207004A80170217849B2FF
:103640000078039008460399029201930094FDF7D5
:1036500069FA0098017848B2FDF70AFA06B010BD81
:1036600082B00190009101980099034A11400843EB
:103670000249086002B0704780FFFF1F08ED00E0BC
:1036800010B581B001466A461070074803680424EB
:10369000A34303601078002802D1FFE730BF01E0A8
:1036A00020BFFFE701B010BD10ED00E00848002189
:1036B00081706422C27041712C2303718173417344
:1036C0000273C17101724172062181717047C04657
:1036D0003404002080B58EB00D900D9800F06AF88B
:1036E000334800F0E1FA0D9801F0CCF906A800216A
:1036F00001804180818040F660120892C180017390
:103700000D9A05901046059A0491114601F038FA79
:103710000AA801210180049A42808280C28002812D
:1037200042810D9B0390184602911146039A00F0C6
:103730005FFF0D980499049A01F026F90D98602115
:10374000049A01911146019A01F0CCF80D98049960
:10375000049A01F045F90220039988800498C880F2
:1037600040F200120A8148810D9803221146039B02
:1037700000921A4600F03CFF0D980099049A01F05F
:1037800003F90D980099019A01F0ACF80D98009991
:10379000049A01F025F90D98029901F06FFA0D983D
:1037A00000F01CFF0D9801F0E1F90EB080BDC0469D
:1037B0000B06000080B586B00590002004900598A7
:1037C0001349884203D1FFE70220049008E00598DE
:1037D0001049884203D1FFE701200490FFE7FFE78B
:1037E0000920C0060221002240F600130390029235
:1037F0000193FEF7C2FB032203980299019BFEF797
:1038000004FC04990398019AFEF76EFA06B080BD95
:10381000002C01400004004010B582B0014601AA0E
:1038200010705D4803684CF20004A34303605B48DA
:1038300003685B4C2340036010780928009000D98E
:10384000A6E00098810001A251188F4600F012B83E
:1038500000F01CB800F026B800F02EB800F03BB81D
:1038600000F046B800F056B800F061B800F071B84A
:1038700000F07CB8494801680122120491430160BC
:10388000016840F200129143016082E04348016800
:103890000122120411430160016840F200129143B9
:1038A000016076E0F94801680160FC48016840F277
:1038B0000012114301606CE0F44801680160F748B0
:1038C00001680122D20711430160016840F2001231
:1038D000114301605DE0ED48016844F200021143CC
:1038E0000160EE48016840F200121143016050E0AF
:1038F000E648016844F2000211430160E7480168AC
:103900000122D20711430160016840F20012114305
:1039100001603EE0DD48016848F2000211430160A9
:10392000DE48016840F200121143016031E0D748DF
:10393000016848F2000211430160D8480168012281
:10394000D20711430160016840F200121143016087
:103950001FE0CE4801684CF2000211430160CF48DD
:10396000016840F200121143016012E0C74801688B
:103970004CF2000211430160C84801680122D207DD
:1039800011430160016840F200121143016000E040
:10399000FFE702B010BDC0460410024030100240E4
:1039A000FFFEFE7F9CB001461BAA107000201A90FB
:1039B00019901890179016901590149013901290DB
:1039C000119010900F900E900D900C900B90AD4AAE
:1039D0000A92AD4A099208900790069205900492C7
:1039E0000390AA4800680C22104080081A901A9888
:1039F0000028029008D0FFE70298012807D0FFE7CF
:103A00000298022806D045E0A348169045E0A24857
:103A1000169042E09D4801680F2292041140890CE3
:103A2000109100680121C9060840C00E0F900F9840
:103A3000012804D1FFE71098113010900BE0109886
:103A40000F2803D1FFE71020109003E01098801C8E
:103A50001090FFE7FFE78D48006801210904084046
:103A6000000C0E900E9800280ED0FFE789480068E1
:103A70000F210840401C0D900D988749B1FBF0F0D4
:103A800010994143169104E01098814941431691E1
:103A9000FFE702E080481690FFE77C480168C9B262
:103AA00009090C910C9907AA515C0B9116990B9A74
:103AB000D1401591016840F200721140090A0C9141
:103AC0000C9905AA515C0B9115990B9AD140149150
:103AD000006843F600010840C00A0C900C9803A946
:103AE000085C0B9015980B99C84013901BA80078A0
:103AF0000528019000D9C1E00198810001A2511868
:103B00008F46C04600F00AB800F00BB800F00CB8C1
:103B100000F00DB800F00EB800F081B816981790BC
:103B2000ADE015981790AAE014981790A7E01398A5
:103B30001790A4E05948006840F2001108408842FC
:103B40000FD0FFE75548006801210904084088426A
:103B500003D0FFE75348129002E051481290FFE76C
:103B60005AE04A48006880B2800B19904B480068C0
:103B7000C00F18901998032800904BD80098810026
:103B800001A251188F46C04600F006B800F013B8E5
:103B900000F020B800F02FB81898002804D1FFE7F3
:103BA00013984008129005E015980321B0FBF1F03E
:103BB0001290FFE72FE01898002804D1FFE7139830
:103BC0008008129005E015980521B0FBF1F01290E5
:103BD000FFE720E01898002806D1FFE71398062198
:103BE000B0FBF1F0129005E015980721B0FBF1F061
:103BF0001290FFE70FE01898002804D1FFE7139810
:103C0000C008129005E015980921B0FBF1F0129060
:103C1000FFE700E0FFE7FFE7129817902FE01F484B
:103C200000688007002803D1FFE71398119022E075
:103C30001A48006803210840012803D1FFE71698BD
:103C4000119017E01548006803210840022804D1AC
:103C5000FFE748F2000011900BE0104800680321D4
:103C60000840032803D1FFE70B48119000E0FFE76D
:103C7000FFE7FFE7FFE71198179000E0FFE71798CD
:103C80001CB0704706070809010203040410024033
:103C900000093D002C10024000127A003010024052
:103CA000003FAB01809FD50010B581B001466A4648
:103CB000108010881F220346134001229A40800979
:103CC000144BC4581443C45001B010BD10B581B09A
:103CD00001466A46108010881F22034613400122C5
:103CE0009A4080090B4BC4589443C45001B010BD96
:103CF00010B581B001466A46108010881F22034625
:103D0000134001229A408009024BC4581443C45006
:103D100001B010BD0010024010B586B013460C462D
:103D2000059004A8017003A80280FFE76A486B4968
:103D3000FEF726FB002801D0FFE7F7E703A800887D
:103D4000022805D1FFE764480021FEF7BCF9FFE730
:103D50006148FEF775FBFFE75F4840F20051FEF750
:103D60000FFB002801D1FFE7F6E75D48018801203D
:103D7000C2435948FEF729FBFFE757485949FEF768
:103D8000FFFA002801D1FFE7F7E753485549FEF74E
:103D9000D7FAFFE750485449FEF7F2FA012801D05C
:103DA000FFE7F7E74C480290FEF7C0FA04A8017855
:103DB0000298FEF7AAFAFFE747484C49FEF7E0FAF7
:103DC000002801D1FFE7F7E74348FEF739FBFFE79B
:103DD000414840F20051FEF7D3FA002801D1FFE735
:103DE000F6E73F4801883C480122FEF7EEFA03A8B7
:103DF0000088022805DCFFE737480021FEF74CF970
:103E0000FFE7FFE734483749FEF7BAFA002801D147
:103E1000FFE7F7E730483349FEF792FA03A8008836
:103E2000012804D1FFE72C48FEF714FBFFE7FFE76A
:103E300003A8008800283AD0FFE703A800880328D9
:103E40000ED1FFE7FFE724482849FEF799FA00283A
:103E500001D1FFE7F7E720480021FEF71DF9FFE752
:103E600003A8008802280DD1FFE7FFE71A481F4981
:103E7000FEF786FA002801D1FFE7F7E71648FEF7BC
:103E8000E9FAFFE714481A49FEF77AFA00280DD03C
:103E9000FFE71148FEF732FA059908700598401CB3
:103EA00005900398401E03A90880FFE7C0E7FFE7DD
:103EB000094800688005002801D5FFE7F8E70648B3
:103EC000012101900091FEF7E7F801980099FEF7B3
:103ED000FAF806B010BDC0460054004001060000CC
:103EE0004404002001050000070500000205000051
:103EF0000605000007480078002804D0FFE70F48B7
:103F00000321418104E00D4840F2E8314181FFE79F
:103F10007047C0464604002081B00090FE480088EB
:103F200001210904081A0099C968088000980078DE
:103F300003490A7802430A7001B070474804002020
:103F40006804002080B50248FFF7E6FF80BDC04648
:103F50000C00002080B50248FFF7DEFF80BDC046A0
:103F60002C000020F0B58FB0169C159D149E1F46A6
:103F700008920E900D910CA8089901700BA90B7076
:103F80000AAB1D7009AD2C700E9C07930D9B06901B
:103F9000002005902046059C04912146039222466C
:103FA000029601970095FDF7E8FF0E980D9B0322FE
:103FB0000599FEF72AF80798007800990978FFF725
:103FC00035FB069800780499097800F0BFF9149839
:103FD00001220599FDF7C8FB1498FDF731FC0FB0DD
:103FE000F0BD000080B58EB02448FFF75DFE244888
:103FF000FFF75AFE234800214EF200020690059179
:104000000492FDF771FE02210698059A049BFDF7C4
:10401000B4FF03200699039008460599039A049B70
:10402000FDF7F3FF01210720069A02901046059A3A
:10403000029BFDF7A2FF06980599039A029BFDF7E4
:10404000E4FF0598089040F20411079140F20071D6
:10405000099103990C9140F200220A920D900B9065
:10406000094A07A91046019200F01AF80199009038
:10407000084600F00BF80EB080BDC04612050000E7
:104080000E070000000400480038004081B0009096
:104090000098016840221143016001B070470000A0
:1040A00086B004900391002000900498006802906C
:1040B000029843F240010840029004980068019081
:1040C000019843F640010840019004984068009030
:1040D00000983E490840009004983D4988423DD1EF
:1040E000FFE7039800680299014302910398406832
:1040F0000299014302910398C06802990143029119
:10410000039800690299014302910398406902995A
:104110000143029103988069029901430291039837
:10412000806840F2007188420BD0FFE703988068F6
:1041300040F60071884204D0FFE705A80021017015
:1041400040E00398806840F600010840029901436E
:104150000291FFE702980499086029E0039800683B
:10416000019901430191039840680199014301912C
:104170000398C0680199014301910398006901996E
:10418000014301910398406901990143019103980A
:10419000806901990143019101980499086003988D
:1041A0008068009901430091009804994860FFE7F6
:1041B0000498C16940F600029143C16105A801213C
:1041C0000170FFE705A8007806B07047FFF0000017
:1041D0000030014082B00A460190684601700198A3
:1041E000416841F2000319434160FFE7019880688C
:1041F0008007002801D4FFE7F8E7684600780199B6
:10420000C860FFE701988068C007002801D1FFE778
:10421000F8E70198C068C0B202B0704780B50220CC
:1042200000F050FD80BD000080B582B0FCF772FF49
:104230003948C188491CC1800189491C0181008914
:1042400036494143364808183649884251D8FFE775
:1042500031480188491C01804188491C41800089FE
:1042600031494143314809180122D141814204D8E2
:10427000FFE7294801210173FFE7274800892A4900
:1042800041432A4808180221C8412949884204D8D4
:10429000FFE7214801214173FFE71F4800892549B5
:1042A0004143254808180221C8412449884204D8BE
:1042B000FFE7194801218173FFE7174800891D496D
:1042C00041431F4808180321C8411E49884206D8A7
:1042D000FFE711480121C17300210181FFE70E486A
:1042E000408840F24061884202DBFFE7FCF768FC4F
:1042F000FFE7094800891449884203DBFFE70020F3
:10430000019003E0044800890190FFE70198024909
:10431000088102B080BDC04648040020CDCCCCCC82
:104320009999991932333333295C8FC250B81E05DD
:10433000285C8F02D578E926DC2406016E12830002
:10434000D82406013689410050C30000B0B585B0BD
:104350000A46034604AC207003A80170017889075F
:10436000090F0F258D40E943029121780478A407B5
:10437000240FA1400191007880080328009035D8CF
:104380000098810001A251188F46C04600F006B87F
:1043900000F00EB800F016B800F01EB802981849E8
:1043A0000A6802400A6001980A6802430A601EE037
:1043B000029812490A6802400A6001980A6802439A
:1043C0000A6014E002980C490A6802400A600198E9
:1043D0000A6802430A600AE0029806490A68024035
:1043E0000A6001980A6802430A6000E0FFE705B02E
:1043F000B0BDC04614000140100001400C00014057
:104400000800014083B0002002900190304801680C
:10441000012211430160FFE70298401C02902C48E2
:104420000068022108400190FFE701980021002860
:10443000009108D1FFE7029840F20051401A411E56
:1044400088410090FFE70098C0070028E4D1FFE70B
:104450001F4800688007002802D4FFE7FFE7FEE757
:104460001C480168022211430522914301601A4849
:104470000168016001680160016801600168174A14
:10448000114001600168164A11430160104801683B
:104490000122120611430160FFE70D480068800108
:1044A000002801D4FFE7F8E70B4801680322914395
:1044B00001600168022211430160FFE706480068BD
:1044C0000007002801D4FFE7F8E703B07047C046B3
:1044D000001002400020024004100240FFFFC2F71B
:1044E0000000040880B5FFF78DFF80BD80B582B065
:1044F0000A48006840F2E831B0FBF1F0FCF734FA0A
:10450000002802D0FFE7FFE7FEE70020C14301904B
:1045100008460199FCF7C6FA02B080BD08000020E9
:1045200080B58CB02748009002200A21264A1F231C
:104530000A9009920893FEF7ADF8244800901E21D6
:1045400023480A9A07901046079A089BFEF724FA18
:104550002048009046210A98099A089BFEF79AF88D
:10456000079800906E21082240F236131046FEF79D
:1045700067FE0020019018480090202196220690A6
:10458000084605911146099A089BFEF79DFC0121FA
:10459000019106990091AA21059A04901046099A62
:1045A000089BFEF791FC0A990191069A0092C82196
:1045B000059B03901846099A089BFEF785FC0CB0F2
:1045C00080BDC046928B0008FFFF0000858B00086D
:1045D000E0FF0000A98B0008D202964981B000904C
:1045E0000098016880221143016001B0704700000B
:1045F00084B00B46039002A8018001920088032832
:10460000009000D963E10098810001A251188F4603
:1046100000F006B800F063B800F0CBB800F023B9A2
:104620000398016A01229143016203988169032280
:10463000914381610198008803990A6A02430A62E2
:104640000398016A022291430162019880880399CC
:104650000A6A02430A6203989E4988420FD0FFE724
:1046600003989D4988420AD0FFE703989B498842F6
:1046700005D0FFE703989A4988422FD1FFE70398B6
:10468000016A0422914301620198408803990A6AF1
:1046900002430A620398016A082291430162019869
:1046A000C08803990A6A02430A620398416840F28B
:1046B0000012914341600198008903994A680243BE
:1046C0004A600398416840F200229143416001989A
:1046D000408903994A6802434A60FFE7F8E003987B
:1046E000016A1022914301620398816940F200320D
:1046F0009143816101980088000103990A6A02438D
:104700000A620398016A202291430162019880881D
:10471000000103990A6A02430A6203986D498842BC
:1047200033D1FFE70398016A402291430162019867
:104730004088000103990A6A02430A620398016AE9
:104740008022914301620198C088000103990A6A9E
:1047500002430A620398416840F20042914341607B
:1047600001980089800003994A6802434A600398CF
:10477000416840F600029143416001984089800001
:1047800003994A6802434A60FFE70398F149884267
:104790000ED1FFE70398416840F200429143416027
:1047A00001980089800003994A6802434A60FFE744
:1047B0008EE00398016A40F200129143016203986F
:1047C000C16903229143C1610198008800020399E5
:1047D0000A6A02430A620398016A40F20022914386
:1047E000016201988088000203990A6A02430A6202
:1047F0000398D749884235D1FFE70398016A40F210
:1048000000429143016201984088000203990A6ABC
:1048100002430A620398016A40F600029143016272
:104820000198C088000203990A6A02430A62039849
:10483000416841F200029143416001980089000102
:1048400003994A6802434A600398416842F20002B1
:104850009143416001984089000103994A680243ED
:104860004A60FFE734E00398016A41F20002914395
:1048700001620398C16940F200329143C16101981D
:104880000088000303990A6A02430A620398016AD6
:1048900042F200029143016201988088000303996B
:1048A0000A6A02430A620398EE4988420ED1FFE782
:1048B0000398416844F200029143416001980089E5
:1048C000800103994A6802434A60FFE700E0FFE77E
:1048D00004B07047002C01400040014000440140FA
:1048E0000048014010B584B013460C46039002A85E
:1048F000018001A90A8000880328009040D8009810
:10490000810001A251188F4600F006B800F010B8DF
:1049100000F01CB800F026B803988169702291431A
:10492000816101A8008803998A6902438A6128E0AD
:104930000398816947F200029143816101A80088D0
:10494000000203998A6902438A611AE00398C169E7
:1049500070229143C16101A800880399CA6902438A
:10496000CA610EE00398C16947F200029143C16138
:1049700001A8008800020399CA690243CA6100E0E5
:10498000FFE704B010BD000084B00B46039002A8FE
:10499000018001920088032800901DD800988100B2
:1049A00001A251188F46C04600F006B800F008B8C2
:1049B00000F00AB800F00CB80198039948630CE0C5
:1049C00001980399886308E001980399C86304E09B
:1049D00001980399086400E0FFE704B07047000005
:1049E00010B584B013460C46039002A8018001A9BB
:1049F0000A8000880328009040D80098810001A216
:104A000051188F4600F006B800F010B800F01CB83E
:104A100000F026B80398816908229143816101A8BA
:104A2000008803998A6902438A6128E003988169B2
:104A300040F600029143816101A8008800020399B9
:104A40008A6902438A611AE00398C1690822914386
:104A5000C16101A800880399CA690243CA610EE0D6
:104A60000398C16940F600029143C16101A8008822
:104A700000020399CA690243CA6100E0FFE704B07B
:104A800010BD000080B58AB0099009987649884227
:104A9000089026D0FFE72D480899814229D0FFE7EA
:104AA0007248089981422CD0FFE76E4808998142EC
:104AB0000FD0FFE76E48089981422BD0FFE76D4881
:104AC000089981422FD0FFE76B480899814232D084
:104AD00039E025480790FFF70BF90798FFF7F6F83C
:104AE00032E020480690FFF703F90698FFF7EEF84A
:104AF0002AE01B480590FFF7FBF80598FFF7E6F85A
:104B000022E040F208400490FFF7F2F80498FFF723
:104B1000DDF819E040F210300390FFF7E9F8039850
:104B2000FFF7D4F810E00D480290FFF7E1F8029883
:104B3000FFF7CCF808E008480190FFF7D9F8019892
:104B4000FFF7C4F800E0FFE70AB080BD00100040A6
:104B5000002C01400040014012030000110300003E
:104B600004040000010400000B03000081B0009069
:104B70000098016801221143016001B070470000F4
:104B800082B0019000910098008801998862019894
:104B90003449884205D0FFE701983349884212D151
:104BA000FFE70198016870229143016000984088F6
:104BB00001990A6802430A600098808801990A688E
:104BC00002430A60FFE7009880680199C862019873
:104BD0002449884219D0FFE701982349884214D01C
:104BE000FFE70198214988420FD0FFE7019820494B
:104BF00088420AD0FFE701981E49884205D0FFE7A6
:104C000001981D4988420DD1FFE70198016840F2E3
:104C10000032914301600098C08801990A680243FC
:104C20000A60FFE701980F4988420FD0FFE701981B
:104C30000F4988420AD0FFE701980E49884205D003
:104C4000FFE701980C49884205D1FFE70098007BF7
:104C500001990863FFE7019841690122114341610D
:104C600002B07047002C01400004004000200040CA
:104C700000400140004401400048014082B00A4623
:104C80000190684601700078012807D1FFE701987C
:104C9000416C48F200021143416406E00198416C06
:104CA00048F2000291434164FFE702B0704780B5CB
:104CB000112000F007F880BD80B5012000F002F857
:104CC00080BD000080B586B0014604AA107010783F
:104CD0000122824003922D48006800280FD0FFE790
:104CE00003982A490A6B02430A6304A800788000EB
:104CF00008182749416305A80021017042E004A873
:104D0000007880002149081800214163FFE70398DB
:104D10001E490A6B82430A630398086004A801785D
:104D200001900846FDF752F8002009210122FCF706
:104D30003DFA01980178102903DBFFE7FCF7A8F999
:104D4000FFE704A8017800200522FCF75FF8FBF7D5
:104D5000E3FF02A864210170FFE70298401E02A948
:104D600008700006002801D0FFE7F6E7FBF760FFB8
:104D7000FBF7CAFF01200090FCF704F905A8009991
:104D80000170FFE705A8007806B080BDB4030020DD
:104D9000C54C000880B5FFF7ADF806480068C007AD
:104DA000002806D1FFE70348016803221143016090
:104DB000FFE780BD10E000E0F0B58FB013460C4671
:104DC0000E900DA801700CA90A800BAA0025157081
:104DD0000AAE357009AF3D70079008A80570079DB1
:104DE0002D780690072005403D70099D059008200C
:104DF000401B069D28700C98C00810700888059903
:104E000008403070387800282BD1FFE7FFE70BA867
:104E100001784A1E0270002913D0FFE70E980DA9F1
:104E20000A780823049111461A46FCF75DFBFCF74B
:104E3000D1FB0D980830049908700E9808300E9038
:104E4000E5E70AA8007800280AD0FFE70E980DA928
:104E500009780AAA1278FCF747FBFCF7BBFBFFE7CF
:104E600067E00CA8008808A9097888420ADAFFE7F9
:104E70000E980DA909780CAA1278FCF735FBFCF7FF
:104E8000A9FB55E008A801780C9A511A0CAA1180C8
:104E90000C99C9080BAB19701188072211400AAA96
:104EA00011700078002818D0FFE70E980DA90A7835
:104EB00008AB1C780391114622460293FCF714FBC1
:104EC000FCF788FB08980D99081803990870029858
:104ED00002780E9B9A180E92FFE7FFE70BA8017865
:104EE0004A1E0270002913D0FFE70E980DA90A7818
:104EF0000823019111461A46FCF7F6FAFCF76AFB03
:104F00000D980830019908700E9808300E90E5E76A
:104F10000AA8007800280AD0FFE70E980DA90978A2
:104F20000AAA1278FCF7E0FAFCF754FBFFE7FFE768
:104F3000FFE70FB0F0BD00000FB410B504A9074B98
:104F400002AA039800F0ECF8044602A9002000F041
:104F500083FC204610BC08BC04B018475958000810
:104F60002021020C01D010211046020A01D0104667
:104F70000839020901D01046091F820801D01046E5
:104F8000891E420801D0881E7047081A704702E047
:104F900008C8121F08C1002AFAD1704770470020C4
:104FA00001E001C1121F002AFBD17047F0B51FB408
:104FB00086B00998089A030D0021024314D0514885
:104FC000514A1818504305141198012810981AD006
:104FD000281A401C00264D4F4D490096019104901F
:104FE000002812DA444211E01198012449A3012853
:104FF00001D11098C1430698119A84600360C26081
:1050000041600BB0F0BD4042E4E7044621050020BA
:105010003F4A001C51410391029012E0E00707D083
:1050200032463B4601990098FBF77AF801910090CF
:1050300032463B4610461946FBF772F806460F46C5
:105040006410002CEAD10498039B0028029A099965
:10505000089806DAFBF764F8019B009AFBF760F802
:1050600005E0FBF7C5F8019B009AFBF7C1F8044681
:105070000E460022284BFBF71BFB03D80020C04341
:10508000014607E00022254B20463146FBF73EFA59
:10509000FBF7EEFA102409E0002C0ADB0A220023B9
:1050A000FBF764F9079B30321A55641E02460A4327
:1050B000F2D11122641C079B121B1C19119B012B9E
:1050C00003D0012308430ED10AE0084304D0112085
:1050D00010900020119077E71098151A6D1E0BE0C4
:1050E0001098824202DD00236D1C03E0824201DA47
:1050F00000236D1E002BEED0069811998260C160CE
:1051000030C07EE701FCFFFF104D0000000014409E
:105110000000F03F300000000000F0430000E03FDE
:10512000FFB597B00646002518E2252877D1002460
:105130002746FD49049400E00443761C32780120A0
:10514000203A90400842F7D130782A280ED0022227
:10515000307801463039092916D804990A23594371
:10516000303940181443761C0490F1E7189802C8AF
:1051700004911890002904DA0120400304434842B6
:10518000049002200443761C30782E2814D1042089
:1051900004437078761C2A2809D11898761C80C898
:1051A000189009E00A214F43303FC719761C307828
:1051B000014630390929F5D930786C2810D006DC41
:1051C0004C281AD068280ED06A2817D104E0742819
:1051D00013D07A2812D110E00120400504430CE0DE
:1051E0000121090501E0032109050C437178814281
:1051F00003D1012000052418761C761C307811900C
:1052000066280BD013DC58287DD009DC00287BD021
:105210004528F6D04628F4D047281AD1A5E118E051
:10522000632835D0642870D0652812D19DE170289C
:105230006CD008DC6728F1D069287BD06E280DD0AF
:105240006F2806D1BAE073282ED0752871D078283F
:1052500059D01A9A199990476D1C7EE16002400F4F
:10526000022809D003280DD00428189801680DD011
:105270000D60001D189070E11898EA1701680D6024
:105280004A60F6E7189801680D80F2E70D70F0E7C4
:1052900018986A4601781172001D1890002050720B
:1052A00002A80090012005E0189802C8189000207C
:1052B0000091C04361070DD5002101E00199491C0F
:1052C0000191B94212DA8142F8DB009A515C00295F
:1052D000F4D10BE0002101E00199491C01918142C8
:1052E000FADB019A0099895C0029F5D101990498AB
:1052F0001A9B471A21463846199A00F097FA0199E5
:10530000401945180BE04FE02CE113E04EE0009807
:1053100000990078491C00911A9A199990470198B0
:10532000401E0190401CF2D1214638461A9B199A22
:1053300010E137E00A200021009001916002410F46
:10534000022907D0189A01CA1892C2179446032955
:1053500008D00AE01898C01DC108C90005C91891F5
:10536000944607E000B2C2179446042902D140B225
:10537000C1178C4600226146944506DA0A46002190
:10538000404291418C462D2102E0210504D52B217C
:105390006A461173012103E0E10701D02021F7E7FC
:1053A000029155E00A200AE0102008E01020009049
:1053B0000021042004430191082703E00820002174
:1053C000019100906002410F022907D0189A01CA8A
:1053D000189200229446032908D008E01898C01DAE
:1053E000C108C90005C91891944603E080B2042998
:1053F00000D1C0B200210291210729D5119970294D
:1054000006D0009A1021019B4A401A4305D00EE0B5
:1054100040216A461173012108E06146014306D02C
:1054200030216A4611731199517302210291009A39
:105430000821019B4A401A430AD16146014301D128
:10544000610705D530216A46117301217F1E029143
:105450001199582904D035A10E910DA90D910DE097
:1054600037A1F9E76146019B009AFAF77FFF0E9B8F
:105470008C469B5C0D9A521E0D921370614601433F
:10548000F0D10D9805A9081A20300190600703D5C6
:1054900001200004844300E001270198874201DDD8
:1054A000381A00E00020019900904118029809186C
:1054B0000498401A0490E00306D421461A9B199AD6
:1054C000049800F0B3F94519002706E003A81A9ADA
:1054D000C05D199990476D1C7F1C02988742F5DBCF
:1054E000E0030CD521461A9B199A049800F09EF906
:1054F000451904E01A9A3020199990476D1C0099BB
:10550000481E00900029F5DC08E00D980D99007800
:10551000491C0D911A9A199990476D1C0199481EC2
:1055200001900029F1DC63E10928010030313233B8
:1055300034353637383961626364656600000000CF
:1055400030313233343536373839414243444546B9
:105550000000000000F05AF94519761C3078002848
:1055600000D0E2E528461BB0F0BD600700D4062756
:105570001898C01DC108C90048680A680831C30FDF
:10558000DB071891190001D09CA108E0210501D585
:105590009BA104E0E10701D09AA100E09AA1430099
:1055A00011985B08109165280CD006DC452809D0BD
:1055B00046281DD0472841D141E0662818D06728E9
:1055C0003CD13CE00021112F01DB112000E0781CD0
:1055D0000191009008A911A8FFF7E8FC1399059123
:1055E0000021119A15927F1C12980197009150E0AA
:1055F0000120C00703900120019008A9009711A87D
:10560000FFF7D4FC139A149905920022119B009283
:1056100012981593059A0192002901D0104602E0D4
:10562000791C40180190381A01D5019804E04042D5
:10563000401E0090781C0190C01B029043E0012F97
:1056400000DA01270021112F01DD112000E038468A
:105650000191009008A911A8FFF7A8FC13990591E2
:10566000119A0021129815920091019721070CD4EC
:105670000599B94201DB019900E00191012904DD9E
:10568000159A491E515C302906D0B84201DA011D35
:1056900005DA0121029115E00199491EEDE7002884
:1056A00005DC0099411800910199091A03E0019A5B
:1056B000411C914200DD01910099401A401C02906A
:1056C0000120C0070390200706D402990198814267
:1056D00002DB0020C043029000206946C87707AF74
:1056E000012103980337C907884224D00220119072
:1056F0002B201290039800280CDA404203902D20B2
:10570000129007E00A210398FAF71AFE30317F1E43
:10571000039039701199481E11900029F2DC03980A
:105720000028EFD1791E12980870307820210840A7
:105730004530BF1E387006A8C01BC01D03901098CE
:105740000078002800D00120019941180298C01764
:105750000918039809180498401A401E0490E003A1
:1057600006D421461A9B199A049800F05FF845194F
:1057700010980078002803D01A9A199990476D1C48
:10578000E00324D521461A9B199A049800F04EF89C
:1057900045191CE00098002807DB0099059888420D
:1057A00003DD1598405C199901E0199930201A9A87
:1057B000904700986D1C401C00900298401E02907B
:1057C000002804D11A9A2E20199990476D1C01992E
:1057D000481E01900029DDDC05E038781A9A7F1C0C
:1057E000199990476D1C0399481E03900029F4DC19
:1057F00021461A9B199A0498ACE600002D0000007F
:105800002B0000002000000000000000F8B5044656
:1058100000251E461746880404D405E0394620209A
:10582000B0476D1C641EF9D52846F8BDFFB5044687
:10583000002581B01E46C80301D5302700E020278F
:10584000880404D505E038460399B0476D1C641EF2
:10585000F9D5284605B0F0BD0A68531C0B601070DE
:105860007047000010B5002823D0124B0022001F03
:10587000196803E0814203D80A4649680029F9D132
:10588000002A0AD01368841A9C4204D100681818B0
:105890001060104602E0506000E01860002907D058
:1058A00002680B1A934203D10B68D2180260496850
:1058B000416010BD00000020F0B50B30C108C900E8
:1058C000144F0026144A0FE003688B420BD38B421F
:1058D00005D95C1A4318456830C3083B00E04368AB
:1058E000136002C004E0021D10680028ECD13046AD
:1058F000002803D13868002801D00020F0BD064AF6
:1059000006481060064A121AD208D20044C001208C
:105910003860D7E704000020000000207C0400204D
:1059200078080020000000000000000000000000D7
:1059300000000000001010101010101010100000D7
:105940001010000000006C6C242400000000010016
:10595000000000000024242424FE48484848FC900D
:105960009090900000103C54929050381412129273
:10597000547810000000225C94A8481010242A5289
:1059800054880000000030484850206E54948C88A1
:105990008A74000000003030101000000000000089
:1059A00000000000000408101020202020202010FB
:1059B000100804000080402020101010101010204B
:1059C00020408000000000001054381038541000AF
:1059D0000000000000000010101010FE1010101049
:1059E00000000000000000000000000000000000B7
:1059F0001010200000000000000000FE0000000069
:105A00000000000000000000000000000000000096
:105A1000101000000000040408081010202040406E
:105A200080800000000038448282828282828282EA
:105A30004438000000000008380808080808080872
:105A4000083E000000003844828204081020408292
:105A500084FC000000003844820204380402028200
:105A6000443800000000040C141424244444FE04B0
:105A7000040E00000000FC808080B8C48202028214
:105A80008478000000003C428280B8C48282828216
:105A90004438000000007E42820404080808101008
:105AA0001010000000003844828244384482828210
:105AB000443800000000384482828282463A0282E2
:105AC000443800000000000010100000000010101A
:105AD0000000000000000000101000000000001096
